:1000000010C02AC0AEC283C027C026C025C024C0ED
:1000100023C022C021C0D3C21FC01EC01DC01CC02F
:100020001BC011241FBECFE5D1E0DEBFCDBF10E065
:10003000A0E6B0E0E6E5F7E002C005900D92A2363A
:10004000B107D9F720E0A2E6B0E001C01D92A736C3
:10005000B207E1F79CD07DC3D3CF8BB381708BBB4C
:100060008BB382708BBBD098D1980895D198000043
:10007000D09A00000895D09A0000D198D09800003E
:10008000089598E0D19A87FF16C0D0980000D198C3
:100090000000C99BFECF880F9150A1F7D19AD0984C
:1000A0000000D1980000C99BFECF89B3D19A00000F
:1000B000809581700895D09AE9CF982F30E020E0A4
:1000C00080E040E850E0D19A0000D1980000C99B40
:1000D000FECFC89B08C0BA01022E02C07595679575
:1000E0000A94E2F7862B2F5F3F4F2830310559F7EE
:1000F000D19A992351F0D09A0000D1980000C99B61
:10010000FECFD19A0000D0980895D098F5CF1F92D5
:100110000F920FB60F9211248F939F9386B3837023
:1001200080936300809163009091600089278093A1
:1001300062008091620080FF0AC08091630090E2BB
:1001400080FD90E180916400892B80936400809110
:10015000620081FF0AC08091630090E881FD90E415
:1001600080916400892B8093640080916300809368
:1001700060009F918F910F900FBE0F901F90189568
:10018000FA01808391838627892782830895CF93FC
:10019000DF93CDB7DEB72E970FB6F894DEBF0FBE54
:1001A000CDBF85B7877E806185BFB898C098B99864
:1001B000C19883E080BD8BB780628BBF0AD27894F0
:1001C00090E080E0B3D2282F8AEA89838A838B83E8
:1001D0008C838DE28D8384ED8E8307E00F83988777
:1001E0000927AE01475F5F4F602F80E0922FC8DF85
:1001F00010E0F12CE12CF894B090640010926400AF
:100200007894CB2CD12CDC2CCC24C114D10441F417
:1002100085B7806285BF889585B78F7D85BFEBCF19
:10022000E4D1C6018827907A892B49F4111103C0C3
:1002300080E056D27C011F5F153008F010E0AE015F
:10024000445F5F4F602FC7019F708C299D2998DF05
:100250006EE0CE0101960FD221D2F8948091640015
:100260008073803369F4809164008F7C8093640094
:10027000B0992EC090E280916400892B8093640035
:10028000809164008B21807329F0809164008F7CC1
:100290008093640080916400807C803C69F480914C
:1002A00064008F7380936400B19914C090E88091CA
:1002B0006400892B80936400809164008B21807C92
:1002C00029F0809164008F7380936400789493CFB9
:1002D00090E1D1CF90E4EBCFEF92FF920F931F9379
:1002E000CF93DF93182FEB01E42EC0DE80EEC9DE42
:1002F000811109C0C0DE8FEFDF91CF911F910F9167
:10030000FF90EF900895812FBCDE8E01F12CC80183
:100310008C1B9D0B8E159F0514F4209719F4ABDEF2
:1003200080E0EACFF80181918F01ABDEF0CFAF9290
:10033000BF92CF92DF92FF920F931F93CF93DF93E1
:100340006C01C62F93DE81EE9CDE81110EC093DE20
:10035000FF24FA948F2DDF91CF911F910F91FF9081
:10036000DF90CF90BF90AF90089581E0C11101C0A0
:1003700080E0A3DEF82E560110E000E0D0E00C177C
:100380001D071CF4C114D10411F475DEE3CF0F5F17
:100390001F4F81E00C171D070CF080E08EDEF50189
:1003A00081935F01ECCFFC01408142954F704F5F1C
:1003B000BC0181E191DF91E08F3F09F090E0892F4E
:1003C00081950895CF93DF931F92CDB7DEB740E0BC
:1003D00070E060E084E680DF8F3F39F061E0CE01BD
:1003E0000196A5DF803829F489810F90DF91CF91A4
:1003F00008958FEFFACFCF93DF931F92CDB7DEB77B
:10040000898341E0BE016F5F7F4F83E665DF91E046
:100410008F3F09F090E0892F81950F90DF91CF9168
:10042000089540E070E060E085E656DF91E08F3FA0
:1004300009F090E0892F81950895CF93DF9300D044
:10044000CDB7DEB790E19983660F660F462B880F14
:10045000880F880F482B4A83CE010196A4DF0F90A6
:100460000F90DF91CF910895CF93DF9300D01F922B
:10047000CDB7DEB790E299838A836B83CE01019674
:1004800092DF0F900F900F90DF91CF910895CF934F
:10049000DF9300D000D0CDB7DEB721E32983969556
:1004A00096959A838B836F706C83CE0101967BDF68
:1004B0000F900F900F900F90DF91CF910895CF93F1
:1004C000DF9300D000D01F92CDB7DEB720E42983A0
:1004D0009A838B837C836D83CE01019664DF0F90BA
:1004E0000F900F900F900F90DF91CF9108950F9381
:1004F000CF93DF9300D000D000D01F92CDB7DEB7EE
:1005000090E699838A836F776B8351705C834D8308
:100510002E830F83CE01019646DF27960FB6F894FF
:10052000DEBF0FBECDBFDF91CF910F910895CF9366
:10053000DF9300D000D000D0CDB7DEB720E529830F
:100540009A838B837C836D834E83CE0101962BDF50
:1005500026960FB6F894DEBF0FBECDBFDF91CF91C8
:1005600008951F920F920FB60F9211242F933F936D
:100570004F935F936F937F938F939F93AF93BF93AB
:10058000EF93FF93CB9906C01DDF80FF14C081E07D
:1005900080936500FF91EF91BF91AF919F918F91F3
:1005A0007F916F915F914F913F912F910F900FBE6F
:1005B0000F901F90189583FFEDCFDA9AEBCF1F9223
:1005C0000F920FB60F9211240F900FBE0F901F9035
:1005D000189543DDD398DB9ADA9AD29A000088E026
:1005E00082BB8BB780618BBF08950F9385B7877EE1
:1005F00085BF81E089BF82E083BFCA9B2CC0109277
:100600006500DA9880916500882369F113BE85B78B
:10061000877E806185BF88E0EEDE40E060E081E0BB
:100620000CDF0FE72DE740E850E06AE080E05FDF95
:1006300068E681E019DF64E080E690E028DF60E3AF
:1006400073ED8CED93E33BDF41E060E876E988E908
:1006500090E00F916CCF85B7806285BF889585B794
:100660008F7D85BFCACF85B7806285BF889585B7E6
:100670008F7D85BFC7CF0F931F93CF938C01C62F5C
:10068000D0DE4C2FB80186E627DE8F3F19F0C093ED
:10069000660080E0CF911F910F910895CF93DF9373
:1006A00000D000D01F92CDB7DEB7198280916600CE
:1006B0008A831B821C821D8245E0BE016F5F7F4FD3
:1006C00082E60ADE91E08F3F09F090E0892F819564
:1006D0000F900F900F900F900F90DF91CF91089592
:1006E000CF93DF9300D01F92CDB7DEB78B8341E06D
:1006F000BE016D5F7F4F88E6EFDD8F3F89F062E0DE
:10070000CE01019614DE803871F489819A81982790
:10071000892798270F900F900F90DF91CF91089520
:100720008FEF90E0F7CF90E080E0F4CFA8E1B0E069
:1007300042E002C0DC01862FE82FE199FECF1FBA0C
:1007400005C0EEBBE09AE3950DB20D924150C8F79B
:060750000895F894FFCFAC
:0207560003009E
:00000001FF
